:100000000C9463000C948B000C948B000C948B006C
:100010000C948B000C948B000C948B000C948B0034
:100020000C948B000C948B000C948B000C948B0024
:100030000C948B000C948B000C948B000C948B0014
:100040000C94DD080C948B000C9407070C948A0721
:100050000C948B000C948B000C948B000C948B00F4
:100060000C9418030C948B0000000000240027005F
:100070002A0000000000250028002B0000000000DE
:1000800023002600290004040404040404040202DA
:100090000202020203030303030301020408102007
:1000A0004080010204081020010204081020000012
:1000B0000007000201000003040600000000000029
:1000C00000002D053D0711241FBECFEFD8E0DEBF95
:1000D000CDBF11E0A0E0B1E0E0E8F5E102C005909D
:1000E0000D92A434B107D9F712E0A4E4B1E001C045
:1000F0001D92A03DB107E1F710E0C6ECD0E004C0CE
:100100002297FE010E94BA0AC23CD107C9F70E9499
:10011000CE080C94BE0A0C9400000F931F9301E0CC
:100120001FC0009344018EE192E00E94D004182F7A
:10013000792F8AE292E0612F4AE050E00E9489081C
:100140008AE292E060E071E00E94B8088091590173
:10015000E82FF0E0EB5BFE4F10838F5F8093590137
:100160008EE192E00E94C70418161906D4F21F917E
:100170000F91089580914401882309F446C010929C
:100180004401109259016091470190914801462F16
:10019000441F4427441F40935A01292F221F22271E
:1001A000221F81E0821B80935B016F7760935C016B
:1001B0009F7790935D018EE591E070E00E9497013A
:1001C00060915D018EE591E070E040915B010E94DD
:1001D0005D018AE292E062E071E00E94B8088AE282
:1001E00092E0609147014AE050E00E949A088AE25A
:1001F00092E061E171E00E94B8088AE292E06091C9
:1002000048014AE050E00E949A0861E070E080E016
:1002100090E00E94600908950F931F938EE591E08E
:100220000E94A4010AE212E0C80140E056E960E041
:1002300070E026E00E94F705C80160E271E00E94CC
:10024000BB080EE112E0C80164E070E00E94C40542
:10025000C8016DE870E00E9428051F910F91089574
:100260000F931F93CF93DF93EC01498184E691E0D4
:100270006AE050E000E117E220E030E00E94BC02BA
:1002800086E061E00E94070A8B81882339F487E0C9
:1002900061E00E94070A88E060E006C087E060E055
:1002A0000E94070A88E061E00E94070A81E08D83CE
:1002B000DF91CF911F910F910895FC01CB0165361D
:1002C000710514F084E690E081834383CF010E949E
:1002D000300108950F931F93CF93DF93EC01488172
:1002E00084E691E069E050E000E117E220E030E0D0
:1002F0000E94BC0286E061E00E94070A8A8188238E
:1003000039F484E061E00E94070A85E060E006C0FD
:1003100084E060E00E94070A85E061E00E94070A2D
:1003200081E08C83DF91CF911F910F910895FC01A3
:10033000CB016536710514F084E690E0808342833A
:10034000CF010E946A010895EF92FF920F931F93CD
:10035000FC0110821182128213821482158284E6BB
:10036000E82E81E0F82EC7010E94F701C70169E07D
:1003700040E050E000E117E220E030E00E94BC02E3
:10038000C7016AE040E050E000E117E220E030E021
:100390000E94BC0286E061E00E94C80984E061E03E
:1003A0000E94C80985E061E00E94C80987E061E019
:1003B0000E94C80988E061E00E94C80986E060E008
:1003C0000E94070A84E060E00E94070A85E060E07E
:1003D0000E94070A87E060E00E94070A88E060E068
:1003E0000E94070A1F910F91FF90EF9008951092BD
:1003F000800080E1809381000895CF93DF93EC012A
:100400009A01AB0160E472E48FE090E00E949D0AE3
:10041000E3E0220F331F441F551FEA95D1F7203028
:1004200080E0380781E0480780E0580714F481E055
:1004300010C073E055954795379527957A95D1F774
:10044000203080E0380781E0480780E058071CF43E
:1004500082E08A8339C063E05595479537952795A3
:100460006A95D1F7203080E0380781E0480780E0C6
:10047000580714F483E0EDCF92E0559547953795F2
:1004800027959A95D1F7203080E0380781E048071A
:1004900080E0580714F484E0DCCF82E0559547955E
:1004A000379527958A95D1F7203080E0380781E08D
:1004B000480780E0580714F485E0CBCF85E08A83B5
:1004C0002FEF3FEF40E050E08FB7F8943983288357
:1004D00030938700209386008FBF80918100887FB2
:1004E00080938100809181009A81892B8093810083
:1004F000DF91CF9108951F93DC01162FFA01453645
:1005000051051CF0E4E6F0E004C057FF02C0E0E053
:10051000F0E08C9111969C919C01B3E0220F331F67
:10052000BA95E1F7880F991F280F391F40E050E076
:10053000BF01882777FD8095982F0E945C0AFAE01A
:100540009695879577956795FA95D1F72FB7F89493
:10055000113011F0193029F47093890060938800EC
:1005600008C0123011F01A3021F470938B006093A0
:100570008A002FBF1F910895CF92DF92FF920F93B1
:100580001F93CF93DF93EC01F62E6A01862F8950DB
:100590008230E8F41016110612061306C4F4CE01D8
:1005A000B901A8010E94FD0189E0F81629F4219AF9
:1005B00080918000806804C0229A809180008062CF
:1005C00080938000CE016F2DA6010E947B02DF91F7
:1005D000CF911F910F91FF90DF90CF900895880FDA
:1005E0008093BA000895482F613210F081E0089599
:1005F00080916701843011F082E008956093B20128
:10060000A1E9B1E0842F9C01F90102C081918D9391
:100610008E2F841B8617D0F380E0089590936E018F
:1006200080936D01089590936C0180936B01089500
:100630001F920F920FB60F9211242F933F934F9357
:100640005F936F937F938F939F93AF93BF93EF933A
:10065000FF938091B90090E0887F9070803691057B
:1006600009F4F2C081369105CCF58832910509F480
:100670007BC089329105B4F48031910509F46FC0D3
:10068000813191053CF4009709F447C1089709F0BE
:100690004FC165C08831910509F466C0809709F0A3
:1006A00047C182C08034910509F4A4C0813491050A
:1006B00044F48033910509F482C0C89709F038C129
:1006C00089C08035910509F489C08835910509F400
:1006D00096C08834910509F02BC1AEC088399105C8
:1006E00009F413C189399105ECF48837910509F4AF
:1006F000ABC0893791054CF48836910509F4A4C044
:100700008037910509F014C19FC08838910509F41C
:10071000FCC08039910509F49DC08038910509F02D
:1007200007C198C0803B910509F4C6C0813B910583
:100730004CF4803A910509F49FC0883A910509F07C
:10074000F7C0BAC0803C910509F4E3C0883C91052C
:1007500009F4DFC0883B910509F0EAC0C2C080916E
:1007600068018093BB00CFC090918F018091900170
:10077000981768F490918F01E92FF0E0E159FE4F4E
:1007800080818093BB009F5F90938F01BCC080915C
:100790006901882309F44BC085ED8093BC008091EA
:1007A000BC0084FDFCCFC2C080E28093D40185ED03
:1007B0008093BC008091BC0084FDFCCFB7C080E377
:1007C0008093D40185ED8093BC008091BC0084FDB2
:1007D000FCCFACC088E38093D4019BC080918F0193
:1007E0009091BB00E82FF0E0E159FE4F90838F5FBE
:1007F00080938F0190918F018091900182C08091B0
:100800008F019091BB00E82FF0E0E159FE4F9083FB
:100810008F5F80938F0180916901882341F085ED7E
:100820008093BC008091BC0084FDFCCF7FC081E040
:1008300080936A0184EA6EC085ED8093BC0080914C
:10084000BC0084FDFCCF72C083E0809367011092EE
:10085000D30159C08091D301803208F056C08091F5
:10086000D3019091BB00E82FF0E0ED54FE4F908350
:100870008F5F8093D30147C08091D301803230F4E1
:10088000E091D301F0E0ED54FE4F108285ED8093AE
:10089000BC008091BC0084FDFCCF10926701609188
:1008A000D301E0916D01F0916E0183EB91E070E076
:1008B00009951092D3012DC084E0809367011092B6
:1008C000B1011092B201E0916B01F0916C010995B8
:1008D0008091B201882329F481E08093B2011092C3
:1008E00091019091B101E92FF0E0EF56FE4F808128
:1008F0008093BB009F5F9093B1019091B101809173
:10090000B201981710F485EC01C085E88093BC0013
:100910000FC085EC8093BC0009C01092D40185ED16
:100920008093BC008091BC0084FDFCCF10926701D5
:10093000FF91EF91BF91AF919F918F917F916F91B7
:100940005F914F913F912F910F900FBE0F901F908D
:1009500018951092670181E08093690110926A01F5
:1009600082E161E00E94070A83E161E00E94070AD8
:10097000E9EBF0E080818E7F808380818D7F8083B2
:1009800088E48093B80085E48093BC0008952091AA
:10099000F60130E08091F501281B3109C901089565
:1009A0004091F5018091F601481718F02FEF3FEFC5
:1009B0000AC0E42FF0E0EB52FE4F8081282F30E098
:1009C0004F5F4093F501C9010895E091F5018091D1
:1009D000F601E81718F0EFEFFFEF06C0F0E0EB527A
:1009E000FE4F8081E82FF0E0CF0108950895AC011B
:1009F00020911C0230911D0221153105E1F09091EA
:100A0000F5018091F6019817B0F090E008C0FA0166
:100A1000EA0FFB1F8081AB52BE4F8C939F5FA92FC3
:100A2000B0E0A617B7079CF31092F5016093F601AA
:100A3000CB01F90109950895E0911A02F0911B028A
:100A4000309729F010921702109218020995089514
:100A500070931D0260931C0208951092210210925F
:100A6000200288EE93E0A0E0B0E080932202909311
:100A70002302A0932402B093250287E291E0909391
:100A80001F0280931E020895CF92DF92EF92FF9291
:100A90000F931F93CF93DF937C016B018A018091A9
:100AA00019028823A1F0C0E0D0E00DC0D701ED917C
:100AB000FC91D601AC0FBD1F0190F081E02DC70164
:100AC0006C9109952196C017D10780F304C0CB0122
:100AD000642F0E94F302C801DF91CF911F910F9103
:100AE000FF90EF90DF90CF900895DF93CF930F9218
:100AF000CDB7DEB7FC016983809119028823C9F064
:100B000080911802803238F081E090E093838283F4
:100B100020E030E015C080911702E82FF0E0E950A6
:100B2000FE4F998190838F5F809317028093180204
:100B300005C0CE01019661E00E94F30221E030E0A1
:100B4000C9010F90CF91DF9108951092F501109295
:100B5000F60110921702109218020E94A90408953B
:100B60000F931F938C01862F0E94EF028CE195E07A
:100B70000E94130387EF94E00E940E03C8010E94B5
:100B8000A5051F910F9108950E94B0050895DC01FD
:100B90005C968C915C97FD01E80FF11DE35AFF4FC5
:100BA00020815C968C915C9790E001968F73907099
:100BB0005C968C935C975696ED91FC9157972083A9
:100BC0005096ED91FC9151978081806480835B9673
:100BD0009C915B975C968C915C97981739F4529630
:100BE000ED91FC91539780818F7D80830895DF92F2
:100BF000EF92FF920F931F93CF93DF93EC017A0153
:100C00008B01D22EE889F98982E08083403081EE21
:100C1000580780E0680780E07807A1F060E079E09D
:100C20008DE390E0A80197010E947B0A215030409B
:100C300040405040569547953795279580E12030A4
:100C4000380798F0E889F989108260E874E88EE145
:100C500090E0A80197010E947B0A2150304040405B
:100C600050405695479537952795EC85FD853083FF
:100C7000EE85FF852083188EEC89FD89D082EA8974
:100C8000FB89808180618083EA89FB89808188601B
:100C90008083EA89FB89808180688083EA89FB8977
:100CA00080818F7D8083DF91CF911F910F91FF9085
:100CB000EF90DF900895FC01218D828D30E0205C63
:100CC0003F4F281B31092F733070C9010895FC0173
:100CD000918D828D981719F42FEF3FEF06C0828D0A
:100CE000E80FF11D858D282F30E0C9010895DC0142
:100CF00059969C9159975A968C915A97981719F42E
:100D00002FEF3FEF10C05A968C915A97FD01E80FD4
:100D1000F11D958D5A968C915A978F5F8F735A96C5
:100D20008C93292F30E0C9010895CF93DF93EC0114
:100D3000888D882361F419C08C9185FF0AC0E889E9
:100D4000F989808185FF05C0CE010E94C705AA8967
:100D5000BB898C9185FD05C0E889F989808186FD74
:100D600004C00FB607FEE8CFF4CFDF91CF9108950E
:100D70000F931F93CF93DF93EC01062F9B8D8C8DE8
:100D8000981791F5E889F989808185FF2DC0EE8952
:100D9000FF896083E889F9898081806480831DC030
:100DA0000FB607FC08C0E889F989808185FF03C078
:100DB000CE010E94C7058C8D181791F38B8DFE0113
:100DC000E80FF11DE35AFF4F00831B8FEA89FB896F
:100DD00080818062808381E0888F81E090E0DF9174
:100DE000CF911F910F9108951B8D1F5F1F73E3CF4C
:100DF00080E897E0892B51F080E090E0892B31F07A
:100E00000E948007882311F00E94000008951F921D
:100E10000F920FB60F9211242F938F939F93EF93FE
:100E2000FF93E0913A02F0913B02808182FD16C06F
:100E3000E0914002F09141022081909143029F5F36
:100E40009F7380914402981771F0E0914302F0E0A3
:100E5000E65DFD4F258F9093430205C0E09140026F
:100E6000F0914102E081FF91EF919F918F912F913D
:100E70000F900FBE0F901F90189510922D02109298
:100E80002C0288EE93E0A0E0B0E080932E029093D5
:100E90002F02A0933002B093310287E391E0909348
:100EA0002B0280932A0285EC90E090933702809386
:100EB000360284EC90E0909339028093380280EC03
:100EC00090E090933B0280933A0281EC90E0909303
:100ED0003D0280933C0282EC90E090933F0280932D
:100EE0003E0286EC90E09093410280934002109283
:100EF0004302109244021092450210924602089555
:100F00008AE292E00E945B0620E0892B09F021E052
:100F1000822F08951F920F920FB60F9211242F93D4
:100F20003F934F935F936F937F938F939F93AF9371
:100F3000BF93EF93FF938AE292E00E94C705FF916F
:100F4000EF91BF91AF919F918F917F916F915F9141
:100F50004F913F912F910F900FBE0F901F901895BA
:100F6000CF92DF92EF92FF920F931F93CF93DF9375
:100F70007C016B018A01C0E0D0E00FC0D6016D9109
:100F80006D01D701ED91FC910190F081E02DC70139
:100F90000995C80FD91F015010400115110571F7AF
:100FA000CE01DF91CF911F910F91FF90EF90DF90D5
:100FB000CF900895EF92FF920F931F938C01DC0165
:100FC000ED91FC910190F081E02D6DE009957C019F
:100FD000D801ED91FC910190F081E02DC8016AE00B
:100FE00009959C012E0D3F1DC9011F910F91FF9086
:100FF000EF900895CF93DF93EC016115710519F41B
:1010000020E030E00FC0DB010D900020E9F71197E0
:10101000A61BB70BE881F9810280F381E02DAD01B9
:1010200009959C01C901DF91CF9108954F925F927C
:101030007F928F929F92AF92BF92CF92DF92EF9268
:10104000FF920F931F93DF93CF93CDB7DEB7A19796
:101050000FB6F894DEBF0FBECDBF2C01742ECB01AE
:10106000223008F42AE019A231E2C32ED12CCC0E92
:10107000DD1E822E9924AA24BB24672D752FA5017D
:1010800094010E947B0A79018A01C801B701A50178
:1010900094010E945C0A472D461B0894C108D108A0
:1010A0004A3014F4405D01C0495CF6014083E1140C
:1010B000F1040105110521F07E2C5F2DC801DDCF63
:1010C000C201B6010E94FA07A1960FB6F894DEBFDE
:1010D0000FBECDBFCF91DF911F910F91FF90EF9089
:1010E000DF90CF90BF90AF909F908F907F905F9058
:1010F0004F900895DC012115310541F4ED91FC91EB
:101100000190F081E02D642F099508950E94160842
:101110000895EF92FF920F931F939A017B0100E0D5
:1011200010E0B801A7010E947A081F910F91FF906B
:10113000EF900895CF92DF92EF92FF920F931F935B
:101140006C01E62E9A01FF2400E010E0B801A7012F
:101150000E947A088C01C6010E94DA07080F191F45
:10116000C8011F910F91FF90EF90DF90CF900895ED
:101170000E94FA070895EF92FF920F931F937C014C
:101180000E94FA078C01C7010E94DA07080F191F95
:10119000C8011F910F91FF90EF900895CF93DF93B7
:1011A0000E9425090E940C01C8EFD6E00E94BA00F7
:1011B0002097E1F30E94F806F9CF1F920F920FB625
:1011C0000F9211242F933F938F939F93AF93BF93CD
:1011D0008091CB029091CC02A091CD02B091CE0231
:1011E0003091CF020196A11DB11D232F2D5F2D3708
:1011F00020F02D570196A11DB11D2093CF028093A1
:10120000CB029093CC02A093CD02B093CE028091FA
:10121000C7029091C802A091C902B091CA0201967A
:10122000A11DB11D8093C7029093C802A093C9026B
:10123000B093CA02BF91AF919F918F913F912F912F
:101240000F900FBE0F901F901895789484B5826010
:1012500084BD84B5816084BD85B5826085BD85B55A
:10126000816085BDEEE6F0E0808181608083E1E809
:10127000F0E0108280818260808380818160808341
:10128000E0E8F0E0808181608083E1EBF0E0808144
:1012900084608083E0EBF0E0808181608083EAE716
:1012A000F0E080818460808380818260808380819F
:1012B000816080838081806880831092C10008955E
:1012C000EF92FF920F931F93CF93DF937B018C01DB
:1012D0003FB7F8948091C7029091C802A091C902CB
:1012E000B091CA0226B5A89B05C02F3F19F0019600
:1012F000A11DB11D3FBFBA2FA92F982F8827820F9C
:10130000911DA11DB11D52E0880F991FAA1FBB1F7F
:101310005A95D1F7EC0130C00E945B0A3FB7F894B0
:101320008091C7029091C802A091C902B091CA02EF
:1013300026B5A89B05C02F3F19F00196A11DB11D30
:101340003FBFBA2FA92F982F8827820F911DA11D6B
:10135000B11D32E0880F991FAA1FBB1F3A95D1F724
:101360008C1B9D0B885E9340B8F20894E108F1084D
:1013700001091109C851DC4FE114F10401051105FF
:1013800059F6DF91CF911F910F91FF90EF90089543
:10139000CF93DF93482F50E0CA0186569F4FFC0140
:1013A00034914A575F4FFA018491882369F190E0A4
:1013B000880F991FFC01E859FF4FA591B491FC01DA
:1013C000EE58FF4FC591D491662351F42FB7F8948E
:1013D0008C91932F909589238C93888189230BC0BE
:1013E000623061F42FB7F8948C91932F90958923F4
:1013F0008C938881832B88832FBF06C09FB7F89476
:101400008C91832B8C939FBFDF91CF910895482FB0
:1014100050E0CA0182559F4FFC012491CA018656B3
:101420009F4FFC0194914A575F4FFA013491332347
:1014300009F440C0222351F1233071F0243028F404
:101440002130A1F0223011F514C02630B1F0273040
:10145000C1F02430D9F404C0809180008F7703C09C
:10146000809180008F7D8093800010C084B58F773D
:1014700002C084B58F7D84BD09C08091B0008F7794
:1014800003C08091B0008F7D8093B000E32FF0E027
:10149000EE0FFF1FEE58FF4FA591B4912FB7F894B0
:1014A000662321F48C919095892302C08C91892B1D
:1014B0008C932FBF08950895629FD001739FF00110
:1014C000829FE00DF11D649FE00DF11D929FF00DD4
:1014D000839FF00D749FF00D659FF00D9927729F0B
:1014E000B00DE11DF91F639FB00DE11DF91FBD0196
:1014F000CF0111240895A1E21A2EAA1BBB1BFD01E6
:101500000DC0AA1FBB1FEE1FFF1FA217B307E407E2
:10151000F50720F0A21BB30BE40BF50B661F771F3A
:10152000881F991F1A9469F760957095809590951A
:101530009B01AC01BD01CF01089597FB092E052643
:101540000ED057FD04D0D7DF0AD0001C38F45095D8
:101550004095309521953F4F4F4F5F4F0895F6F7D7
:1015600090958095709561957F4F8F4F9F4F08950F
:10157000EE0FFF1F0590F491E02D0994F894FFCF32
:10158000090073706565645F6C65667420203D209A
:101590000073706565645F7269676874203D200040
:1015A0006F6B000000000075054405C704D004E51A
:1015B00004F60400000000B806B0075B0677066773
:0415C0000695060086
:00000001FF
